:100000000C9475000C9492000C9492000C94920045
:100010000C9492000C9492000C9492000C94920018
:100020000C9492000C9492000C9492000C94920008
:100030000C9492000C9492000C9492000C949200F8
:100040000C9492000C9492000C9492000C949200E8
:100050000C9492000C9492000C9492000C949200D8
:100060000C9492000C94920008000000BE92244967
:10007000123EABAAAA2ABECDCCCC4C3E00000080DA
:10008000BEABAAAAAA3E00000000BF000000803F4D
:100090000000000000084178D3BB4387D1133D190D
:1000A0000E3CC3BD4282AD2B3E68EC8276BED98F3A
:1000B000E1A93E4C80EFFFBE01C4FF7F3F0000007E
:1000C000000007634236B79BD8A71A39685618AEA6
:1000D000BAAB558C1D3CB7CC5763BD6DEDFD753E7D
:1000E000F6177231BF000000803F11241FBECFEF12
:1000F000D8E0DEBFCDBF12E0A0E0B1E0EAE7F5E175
:1001000002C005900D92A83BB107D9F722E0A8EBF9
:10011000B2E001C01D92AA3BB207E1F70E94C303FF
:100120000C94BB0A0C94000080E480937C0086E869
:1001300080937A000895ECE7F0E09081987F8770D3
:10014000892B8083EAE7F0E080818064808380915E
:100150007A0084FFFCCF8091780090917900089517
:100160009C0140E050E060E472E48FE090E00E9487
:10017000AF07215031093093C5002093C40088E1B6
:100180008093C10086E08093C20008959091C000E2
:1001900095FFFCCF8093C6000895CF93DF93EC01C9
:1001A0008881882321F021960E94C600F9CFDF9133
:1001B000CF91089580E091E00E94CD0084E191E02C
:1001C0000E94CD008EE491E00E94CD008CE691E08B
:1001D0000E94CD008BE891E00E94CD0086EA91E07C
:1001E0000E94CD008AEC91E00E94CD000895882302
:1001F00021F085B1816085B903C085B18E7F85B955
:10020000662321F085B1826085B9089585B18D7F1F
:1002100085B908954F925F926F927F928F929F92CD
:10022000AF92BF92CF92DF92EF92FF920F931F9304
:10023000CF93DF93CDB7DEB760970FB6F894DEBFEC
:100240000FBECDBF6B017C018A0120E030E0A90127
:100250000E94590488233CF48DE20E94C600F7FAFC
:10026000F094F7F8F094C701B6010E94D0042B0176
:100270003C01072E000C880B990B0E9408059B017E
:10028000AC01C701B6010E94EC036B017C01B8010F
:10029000012E000C880B990B0E9408059B01AC01F4
:1002A00060E070E080E291E40E947A069B01AC017C
:1002B000C701B6010E940D0620E030E040E05FE398
:1002C0000E94ED030E94D004962E872EA62EB72EF4
:1002D0005F924F9282EE91E09F938F93CE010196B1
:1002E0007C019F938F930E94D107C7010E94CD008C
:1002F0008EE20E94C600015011090F900F900F90DE
:100300000F900F900F901016110634F5B5010B2CBD
:10031000000C880B990B0E9408056B017C01B80149
:10032000012E000C880B990B0E9408059B01AC0163
:1003300060E070E080E291E40E947A069B01AC01EB
:10034000C701B6010E945904882334F480E30E9457
:10035000C60001501109D7CF8F929F9282EE91E093
:100360009F938F938E010F5F1F4F1F930F930E94D8
:10037000D107C8010E94CD000F900F900F900F90F1
:100380000F900F9060960FB6F894DEBF0FBECDBFF2
:10039000DF91CF911F910F91FF90EF90DF90CF9061
:1003A000BF90AF909F908F907F906F905F904F9095
:1003B00008954F925F926F927F928F929F92AF9229
:1003C000BF92CF92DF92EF92FF92CF93DF9300D054
:1003D00000D01F92CDB7DEB7823309F4C4C018F441
:1003E000813341F08EC1833309F406C1843309F4AB
:1003F0004CC187C180E00E949B00BC0180E090E07E
:100400000E94060520E030E040EA50E40E940D061C
:1004100020E030EC4FE754E40E945E044B015C01A5
:100420009B01AC0160E070E080EA90E40E94EC0384
:1004300020E030E44CE156E40E945E0420E030E02D
:100440004AE754E40E940D062B013C0120E030E015
:100450004AE754E40E945E049B01AC01C501B4016B
:100460000E945E0469837A838B839C8320E030E45E
:100470004CE156E40E945E040E94C50520E030E293
:1004800049E655E40E945E042FE03FEC4BE55BE358
:100490000E94ED039B01AC0160E070E080E89FE307
:1004A0000E945E0423E333E948E853E40E94EC032E
:1004B0006B017C0185EE91E00E94CD0042E050E0AE
:1004C000C701B6010E940A0187EF91E00E94CD00AA
:1004D0008CEF91E00E94CD0042E050E0C501B401F4
:1004E0000E940A0188E092E00E94CD008DE092E037
:1004F0000E94CD0042E050E0C301B2010E940A0117
:1005000088E192E00E94CD008EE192E00E94CD0051
:1005100042E050E069817A818B819C810E940A01CE
:100520008BE292E00E94CD0081E08D8320E030E0FC
:1005300040EF51E4C701B6010E94B80588230CF4CE
:100540001D8281E0898320E030E040EF51E4C70163
:10055000B6010E94590488230CF019826D818981AB
:100560000E94F700CEC081E00E949B00BC0180E0A9
:1005700090E00E9406054B015C0120E030E44CE174
:1005800056E40E945E046B017C0182E392E00E94CB
:10059000CD0043E050E0C701B6010E940A018EE49D
:1005A00092E00E94CD0040E050E0C501B4010E94FD
:1005B0000A0182E592E00E94CD0081E08D832AE06D
:1005C00037ED43E25DE3C701B6010E94B805882319
:1005D0000CF41D8281E089832AE037ED43E25DE37C
:1005E000C701B6010E94590488230CF019826D815D
:1005F00089810E94F70085C082E00E949B00BC01B7
:1006000080E090E00E9406054B015C0120E030E4B0
:100610004CE156E40E945E046B017C0188E592E0A7
:100620000E94CD0043E050E0C701B6010E940A01DC
:100630008EE492E00E94CD0040E050E0C501B4019C
:100640000E940A0182E592E00E94CD0081E08D8344
:100650002AE037ED43EA5CE3C701B6010E94B80522
:1006600088230CF41D8281E089832AE037ED43EA78
:100670005CE3C701B6010E94590488230CF019827B
:100680006D8189810E94F7003CC087E00E949B0039
:10069000BC0180E090E00E94060520E030E040E2EE
:1006A00051E40E945E046B017C0182E792E00E94AB
:1006B000CD0042E050E0C701B6010E940A018DE87A
:1006C00092E00E94CD0081E08D8320E030E040EA9E
:1006D00052E4C701B6010E94B80588230CF41D82BC
:1006E00081E0898320E030E040EA52E4C701B601AE
:1006F0000E94590488230CF019826D8189810E941F
:10070000F7000F900F900F900F900F90DF91CF9107
:10071000FF90EF90DF90CF90BF90AF909F908F9021
:100720007F906F905F904F9008958091C0008823D4
:100730004CF58091C6008093B9028A3019F1833755
:1007400029F40E94DA001092B80208959091B8023C
:10075000911114C0813390F0853380F481E080934F
:10076000B80280E992E00E94CD008091B9020E9417
:10077000C6008EE892E00E94CD00089585EA92E0DE
:100780000E94CD0008950E94940080E895E20E94A6
:10079000B00084B1836084B90E94DA000E9495039E
:1007A0008091B8028823D1F38091B9020E94D901C7
:1007B0002FEF89E698E1215080409040E1F700C09A
:1007C00000008091C6008093B902833739F71092F8
:1007D000B8020E94DA00E2CF5058BB27AA270E9435
:1007E00004040C947E050E94700538F00E94770581
:1007F00020F039F49F3F19F426F40C946D050EF4A3
:10080000E095E7FB0C946705E92F0E948F0558F3EC
:10081000BA17620773078407950720F079F4A6F5E5
:100820000C94B1050EF4E0950B2EBA2FA02D0B0100
:10083000B90190010C01CA01A0011124FF27591B25
:1008400099F0593F50F4503E68F11A16F040A22F2B
:10085000232F342F4427585FF3CF4695379527959C
:10086000A795F0405395C9F77EF41F16BA0B620B9B
:10087000730B840BBAF09150A1F0FF0FBB1F661FE2
:10088000771F881FC2F70EC0BA0F621F731F841F25
:1008900048F4879577956795B795F7959E3F08F04B
:1008A000B0CF9395880F08F09927EE0F979587950D
:1008B00008950E94430508F481E008950E9472049F
:1008C0000C947E050E94770558F00E94700540F058
:1008D00029F45F3F29F00C94670551110C94B2057F
:1008E0000C946D050E948F0568F39923B1F355238D
:1008F00091F3951B550BBB27AA2762177307840733
:1009000038F09F5F5F4F220F331F441FAA1FA9F3C8
:1009100035D00E2E3AF0E0E832D091505040E695B6
:10092000001CCAF72BD0FE2F29D0660F771F881F17
:10093000BB1F261737074807AB07B0E809F0BB0B0A
:10094000802DBF01FF2793585F4F3AF09E3F51051E
:1009500078F00C9467050C94B2055F3FE4F3983E81
:10096000D4F3869577956795B795F7959F5FC9F707
:10097000880F911D9695879597F90895E1E0660F88
:10098000771F881FBB1F621773078407BA0720F001
:10099000621B730B840BBA0BEE1F88F7E09508956A
:1009A0000E94D7046894B1110C94B20508950E9476
:1009B000970588F09F5798F0B92F9927B751B0F055
:1009C000E1F0660F771F881F991F1AF0BA95C9F7D3
:1009D00014C0B13091F00E94B105B1E008950C94BB
:1009E000B105672F782F8827B85F39F0B93FCCF36E
:1009F000869577956795B395D9F73EF49095809550
:100A0000709561957F4F8F4F9F4F0895E89409C06F
:100A100097FB3EF490958095709561957F4F8F4F31
:100A20009F4F9923A9F0F92F96E9BB279395F69547
:100A3000879577956795B795F111F8CFFAF4BB0FC5
:100A400011F460FF1BC06F5F7F4F8F4F9F4F16C029
:100A5000882311F096E911C0772321F09EE8872FB3
:100A6000762F05C0662371F096E8862F70E060E06F
:100A70002AF09A95660F771F881FDAF7880F9695E8
:100A8000879597F90895990F0008550FAA0BE0E88C
:100A9000FEEF16161706E807F907C0F01216130640
:100AA000E407F50798F0621B730B840B950B39F480
:100AB0000A2661F0232B242B252B21F408950A26E6
:100AC00009F4A140A6958FEF811D811D089597F926
:100AD0009F6780E870E060E008959FEF80EC0895E4
:100AE00000240A941616170618060906089500240D
:100AF0000A9412161306140605060895092E039487
:100B0000000C11F4882352F0BB0F40F4BF2B11F4FA
:100B100060FF04C06F5F7F4F8F4F9F4F089557FD59
:100B20009058440F551F59F05F3F71F04795880F5B
:100B300097FB991F61F09F3F79F0879508951216F2
:100B400013061406551FF2CF4695F1DF08C016169E
:100B500017061806991FF1CF86957105610508944F
:100B60000895E894BB2766277727CB0197F9089566
:100B70000E94430508F48FEF089516F00C940407C3
:100B80000C946D0568940C9467050E949705A8F372
:100B90009923C1F3AEF3DF93CF931F930F93FF928B
:100BA000C92FDD2788232AF02197660F771F881F1A
:100BB000DAF720E030E040E85FEB9FE3883920F08F
:100BC000803E38F021968F770E94ED03E8E6F0E052
:100BD00004C00E94ED03E5E9F0E00E9412078B01DA
:100BE000BE01EC01FB2E6F5771097595771F880BBD
:100BF000990B0E94080528E132E741E35FE30E9478
:100C00002006AF2D9801AE01FF900F911F91CF915B
:100C1000DF910E9404040C947E050E9420060C942F
:100C20007E050E94700538F00E94770520F095231C
:100C300011F00C9467050C946D0511240C94B20509
:100C40000E948F0570F3959FC1F3950F50E0551FDB
:100C5000629FF001729FBB27F00DB11D639FAA2711
:100C6000F00DB11DAA1F649F6627B00DA11D661F60
:100C7000829F2227B00DA11D621F739FB00DA11D81
:100C8000621F839FA00D611D221F749F3327A00D3B
:100C9000611D231F849F600D211D822F762F6A2FD7
:100CA00011249F5750409AF0F1F088234AF0EE0F3C
:100CB000FF1FBB1F661F771F881F91505040A9F769
:100CC0009E3F510580F00C9467050C94B2055F3F80
:100CD000E4F3983ED4F3869577956795B795F795A5
:100CE000E7959F5FC1F7FE2B880F911D969587951D
:100CF00097F90895FA01EE0FFF1F3096210531058F
:100D0000A1F16115710561F48038BFE39B0749F1DA
:100D100068949038810561F08038BFEF9B0741F0FF
:100D200099234AF5FF3FE1053105210519F1E894C2
:100D30000894E795D901AA2329F4AB2FBE2FF85FB9
:100D4000D0F310C0FF5F70F4A695E0F7F73950F0CC
:100D500019F0FF3A38F49F779F930DD00F9007FC5E
:100D60009058089546F00C946D0560E070E080E8BE
:100D70009FE308954FE79F775F934F933F932F93A0
:100D80000E94C5052F913F914F915F910E940D06E2
:100D90000C94D20629F416F00C9467050C94B10556
:100DA0000C946D050E949705A8F39638A0F707F8F4
:100DB0000F92E8942BE33AEA48EB5FE70E942306A0
:100DC0000F920F920F924DB75EB70F920E947B0762
:100DD000E2ECF0E00E9412074F915F91EF91FF91DA
:100DE000E595EE1FFF1F49F0FE57E0684427EE0F20
:100DF000441FFA95E1F74195550B0E9445070F9066
:100E000007FE0C94390708959F3F31F0915020F46C
:100E1000879577956795B795880F911D96958795D6
:100E200097F90895DF93CF931F930F93FF92EF925B
:100E3000DF927B018C01689406C0DA2EEF010E94DC
:100E40002006FE01E894A591259135914591559193
:100E5000A6F3EF010E940404FE019701A801DA94B1
:100E600069F7DF90EF90FF900F911F91CF91DF9185
:100E700008959B01AC0160E070E080E89FE30C9472
:100E80005E040C9467050C9404070E949705D8F340
:100E90009923C9F3940F511DA3F39150504094F03E
:100EA00059F0882332F0660F771F881F9150504009
:100EB000C1F79E3F51052CF7880F911D9695879598
:100EC00097F908955F3FACF0983E9CF0BB2786955C
:100ED00077956795B79508F4B1609395C1F7BB0F07
:100EE00058F711F460FFE8CF6F5F7F4F8F4F9F4F30
:100EF000E3CF0C94B205FA01DC01AA0FBB1F9B01E2
:100F0000AC01BF5728F4222733274427507820C04C
:100F1000B75190F4AB2F0024469537952795011CC7
:100F2000A395D2F3002071F0220F331F441FB39515
:100F3000DAF30ED00C94EC0361307105A0E88A0757
:100F4000B94630F49B01AC01662777278827907853
:100F5000309621F020833183428353830895A1E2A8
:100F60001A2EAA1BBB1BFD010DC0AA1FBB1FEE1F23
:100F7000FF1FA217B307E407F50720F0A21BB30B6E
:100F8000E40BF50B661F771F881F991F1A9469F7EA
:100F900060957095809590959B01AC01BD01CF0146
:100FA0000895AEE0B0E0E7EDF7E00C94920A0D8909
:100FB0001E8986E08C831A8309838FEF9FE79E83C7
:100FC0008D83AE01475E5F4F6F89788DCE010196AC
:100FD0000E94F307EF81F885E00FF11F10822E9633
:100FE000E4E00C94AE0AABE0B0E0E9EFF7E00C947B
:100FF000840A6C017B018A01FC01178216828381BD
:1010000081FFCCC1CE0101963C01F6019381F7012D
:1010100093FD859193FF81917F01882309F4BAC1E3
:10102000853239F493FD859193FF81917F0185325B
:1010300029F4B60190E00E94EA09E7CF912C212C17
:10104000312CFFE1F315D8F08B3279F038F480328F
:1010500079F08332A1F4232D20611DC08D3261F01F
:10106000803369F4232D216016C0832D8260382ED1
:10107000E32DE4603E2E2AC0F32DF8601DC037FC3E
:101080002DC020ED280F2A3040F08E32B9F436FC06
:1010900081C1232D2064322E19C036FE06C08AE09D
:1010A000989E200D1124922E11C0EAE02E9E200D54
:1010B0001124222EF32DF0623F2E08C08C3621F42D
:1010C000832D8068382E02C0883641F4F70193FDE5
:1010D000859193FF81917F018111B3CF982F9F7DDF
:1010E0009554933028F40C5F1F4F9FE399830DC0F4
:1010F000833631F0833771F0833509F059C021C050
:10110000F801808189830E5F1F4F88248394912C7E
:10111000530113C02801F2E04F0E511CF801A080CA
:10112000B18036FE03C0692D70E002C06FEF7FEF23
:10113000C5010E94DF094C018201F32DFF773F2E8C
:1011400016C0280122E0420E511CF801A080B18097
:1011500036FE03C0692D70E002C06FEF7FEFC5015E
:101160000E94D4094C01F32DF0683F2E820133FC1C
:101170001BC0822D90E088169906B0F4B60180E27B
:1011800090E00E94EA092A94F4CFF50137FC85919A
:1011900037FE81915F01B60190E00E94EA092110BB
:1011A0002A9421E0821A91088114910471F7E8C011
:1011B000843611F0893641F5F80137FE07C06081A9
:1011C0007181828193810C5F1F4F08C060817181A2
:1011D000072E000C880B990B0E5F1F4FF32DFF7627
:1011E0003F2E97FF09C090958095709561957F4F30
:1011F0008F4F9F4FF0683F2E2AE030E0A3010E94FE
:10120000260A882E861845C0853731F4232D2F7E77
:10121000B22E2AE030E025C0932D997FB92E8F366B
:10122000C1F018F4883579F0B5C0803719F08837E7
:1012300021F0B0C0E92FE061BE2EB4FE0DC0FB2D41
:10124000F460BF2E09C034FE0AC0292F2660B22EDA
:1012500006C028E030E005C020E130E002C020E117
:1012600032E0F801B7FE07C060817181828193810D
:101270000C5F1F4F06C06081718180E090E00E5FBF
:101280001F4FA3010E94260A882E8618FB2DFF7788
:101290003F2E36FE0DC0232D2E7FA22E891458F42A
:1012A00034FE0BC032FC09C0832D8E7EA82E05C0F3
:1012B000B82CA32C03C0B82C01C0B92CA4FE0FC0BD
:1012C000FE01E80DF11D8081803321F49A2D997E75
:1012D000A92E09C0A2FE06C0B394B39404C08A2DFF
:1012E000867809F0B394A3FC11C0A0FE06C0B21426
:1012F00088F4280C922C9B180EC0B21460F4B6012E
:1013000080E290E00E94EA09B394F7CFB21418F497
:101310002B1802C0982C212CA4FE10C0B60180E32B
:1013200090E00E94EA09A2FE17C0A1FC03C088E772
:1013300090E002C088E590E0B6010CC08A2D867866
:1013400059F0A1FE02C08BE201C080E2A7FC8DE251
:10135000B60190E00E94EA09891438F4B60180E3EE
:1013600090E00E94EA099A94F7CF8A94F301E80D7D
:10137000F11D8081B60190E00E94EA098110F5CF4D
:10138000222009F442CEB60180E290E00E94EA09F0
:101390002A94F6CFF6018681978102C08FEF9FEFE6
:1013A0002B96E2E10C94A00AFC010590615070407C
:1013B0000110D8F7809590958E0F9F1F0895FC011E
:1013C0006150704001900110D8F7809590958E0F74
:1013D0009F1F08950F931F93CF93DF93FB012381EA
:1013E00021FD03C08FEF9FEF2CC022FF16C0468166
:1013F0005781248135814217530744F4A081B1817C
:101400009D012F5F3F4F318320838C93268137814D
:101410002F5F3F4F3783268314C08B01EC01FB0104
:101420000084F185E02D0995892BE1F6D801169607
:101430008D919C911797019617969C938E93169772
:10144000CE01DF91CF911F910F910895FA01AA2744
:10145000283051F1203181F1E8946F936E7F6E5FF7
:101460007F4F8F4F9F4FAF4FB1E03ED0B4E03CD0A5
:10147000670F781F891F9A1FA11D680F791F8A1F88
:10148000911DA11D6A0F711D811D911DA11D20D0EF
:1014900009F468943F912AE0269F11243019305DA9
:1014A0003193DEF6CF010895462F4770405D41939A
:1014B000B3E00FD0C9F7F6CF462F4F70405D4A33E7
:1014C00018F0495D31FD4052419302D0A9F7EACFAF
:1014D000B4E0A6959795879577956795BA95C9F7DE
:1014E00000976105710508959B01AC010A2E0694D1
:1014F0005795479537952795BA95C9F7620F731F8A
:10150000841F951FA01D08952F923F924F925F92C6
:101510006F927F928F929F92AF92BF92CF92DF9203
:10152000EF92FF920F931F93CF93DF93CDB7DEB768
:10153000CA1BDB0B0FB6F894DEBF0FBECDBF0994FC
:101540002A88398848885F846E847D848C849B8453
:10155000AA84B984C884DF80EE80FD800C811B8161
:10156000AA81B981CE0FD11D0FB6F894DEBF0FBE90
:0A157000CDBFED010895F894FFCF00
:10157A000A7E7E7E204D454E497575757555207ECD
:10158A007E7E0A00313A2043697469726520746567
:10159A006D70657261747572612C2074656E736901
:1015AA00756E652C20637572656E7420736920727E
:1015BA00657A697374656E74204E54430A00323A30
:1015CA00204369746972652063616C69746174652A
:1015DA0020616572204D513133350A00333A204378
:1015EA00697469726520636F6E63656E7472617483
:1015FA00696520434F204D51370A00343A20436928
:10160A007469726520756D696469746174652044D2
:10161A00485431310A0053637269652027732720C1
:10162A0070656E7472752061207265766564656195
:10163A00206D656E69756C2E0A000A53656C6563C8
:10164A007465617A61206F206F707469756E653A8E
:10165A000A0025640054656D706572617475726163
:10166A00204E54433A2000204320200054656E73D4
:10167A0069756E65613A2000205620200043757214
:10168A00656E74756C3A2000206D41202000526509
:10169A007A697374656E74613A2000206F686D69A7
:1016AA000A0043616C6974617465612061657275D1
:1016BA006C756920284D51313335293A200025208F
:1016CA0020002070706D0A004D6F6E6F786964207B
:1016DA00646520636172626F6E20284D5137293A22
:1016EA002000556D69646974617465612064696E6E
:1016FA00206165722028444854293A2000250A00AE
:10170A004F707469756E65612073656C6563746189
:10171A0074613A2000436F6D616E646120696E7670
:08172A00616C6964610A0000B2
:00000001FF
